:100000000C9436000C945E000C945E000C945E0020
:100010000C945E000C945E000C945E000C945E00E8
:100020000C945E000C945E000C945E000C945E00D8
:100030000C945E000C945E000C945E000C945E00C8
:100040000C9404020C945E000C9474020C944E0206
:100050000C945E000C945E000C945E000C945E00A8
:100060000C945E000C945E00A602620411241FBE74
:10007000CFEFD8E0DEBFCDBF11E0A0E0B1E0E2ED10
:10008000FDE002C005900D92A833B107D9F721E039
:10009000A8E3B1E001C01D92AA3EB207E1F710E06B
:1000A000C5E3D0E004C02197FE010E948A04C43356
:1000B000D107C9F70E94E1020C94DC060C94000001
:1000C0002FB7F89480913F0190914001A091410198
:1000D000B09142012FBF80934B0190934C01A093AC
:1000E0004D01B0934E01E0914301F091440106802F
:1000F000F781E02D83E491E0099597FF26C02FB7A3
:10010000F89480913F0190914001A0914101B091FC
:1001100042012FBF40914B0150914C0160914D0124
:1001200070914E01841B950BA60BB70B40914701B4
:10013000509148016091490170914A0184179507D7
:10014000A607B70780F28FEF9FEF08950895CF922B
:10015000DF92EF92FF920F931F93CF93DF936C0187
:100160007A018B01C0E0D0E0CE15DF0589F0D8011F
:100170006D918D01D601ED91FC910190F081E02D02
:10018000C6010995892B11F47E0102C02196ECCF9E
:10019000C701DF91CF911F910F91FF90EF90DF90FA
:1001A000CF900895FC01918D828D981761F0828D1A
:1001B000DF01A80FB11D5D968C91928D9F5F9F739B
:1001C000928F90E008958FEF9FEF0895FC01918D3D
:1001D000828D981731F0828DE80FF11D858D90E0AA
:1001E00008958FEF9FEF0895FC01918D228D892F47
:1001F00090E0805C9F4F821B91098F73992708952F
:1002000083E491E00E94F40021E0892B09F420E0CE
:10021000822F0895FC01848DDF01A80FB11DA35A20
:10022000BF4F2C91848D90E001968F739927848F16
:10023000A689B7892C93A089B1898C9180648C930D
:10024000938D848D981306C00288F389E02D8081F8
:100250008F7D80830895EF92FF920F931F93CF932A
:10026000DF93EC0181E0888F9B8D8C8D981305C006
:10027000E889F989808185FD24C0F62E0B8D10E078
:100280000F5F1F4F0F731127E02E8C8DE8120CC0EB
:100290000FB607FCFACFE889F989808185FFF5CF91
:1002A000CE010E940A01F1CF8B8DFE01E80FF11DF6
:1002B000E35AFF4FF0820B8FEA89FB8980818062CD
:1002C00007C0EE89FF896083E889F98980818064AD
:1002D000808381E090E0DF91CF911F910F91FF909B
:1002E000EF900895CF93DF93EC01888D8823C9F0B8
:1002F000EA89FB89808185FD05C0A889B9898C912F
:1003000086FD0FC00FB607FCF5CF808185FFF2CFC9
:10031000A889B9898C9185FFEDCFCE010E940A0191
:10032000E7CFDF91CF91089580E090E0892B29F00D
:100330000E94000181110C9400000895009769F05B
:10034000FC0101900020E9F73197AF01481B590BE0
:10035000BC0183E491E00C94A70080E090E0089554
:100360000E9487060F931F93CF93DF93EC01888140
:100370009981009729F02A813B812617370788F455
:100380008B016F5F7F4F0E94BD05009761F09983DD
:1003900088831B830A832C813D81232B11F4FC016C
:1003A000108281E001C080E0DF91CF911F910F9119
:1003B0000895EF92FF920F931F93CF93DF93EC0179
:1003C0007B018A01BA010E94B20128813981811121
:1003D0000DC02115310519F0C9010E9425051982AA
:1003E00018821D821C821B821A8206C01D830C8308
:1003F000B701C9010E949E06CE01DF91CF911F91E6
:100400000F91FF90EF9008951F920F920FB60F92E9
:1004100011242F933F938F939F93AF93BF9380911A
:100420003F0190914001A0914101B0914201309172
:100430003E0123E0230F2D3720F40196A11DB11DAD
:1004400005C026E8230F0296A11DB11D20933E0191
:1004500080933F0190934001A0934101B0934201EA
:1004600080913A0190913B01A0913C01B0913D01F6
:100470000196A11DB11D80933A0190933B01A09379
:100480003C01B0933D01BF91AF919F918F913F91FE
:100490002F910F900FBE0F901F9018951F920F92E3
:1004A0000FB60F9211242F933F934F935F936F9347
:1004B0007F938F939F93AF93BF93EF93FF9383E4C7
:1004C00091E00E940A01FF91EF91BF91AF919F913E
:1004D0008F917F916F915F914F913F912F910F90ED
:1004E0000FBE0F901F9018951F920F920FB60F928C
:1004F00011242F938F939F93EF93FF93E0915301D8
:10050000F09154018081E0915901F0915A0182FDEE
:1005100012C0908180915C018F5F8F7320915D018B
:10052000821751F0E0915C01F0E0ED5BFE4F958F9A
:1005300080935C0101C08081FF91EF919F918F9129
:100540002F910F900FBE0F901F901895E3E4F1E0EC
:100550001382128288EE93E0A0E0B0E0848395835A
:10056000A683B7838AE091E09183808385EC90E055
:100570009587848784EC90E09787868780EC90E06D
:10058000918B808B81EC90E0938B828B82EC90E05E
:10059000958B848B86EC90E0978B868B118E128ED8
:1005A000138E148EE0EEF1E011821082138212821B
:1005B0001582148240E050E067E371E0CF010C94B3
:1005C000D901CF93DF93CDB7DEB7A3970FB6F894D9
:1005D000DEBF0FBECDBF789484B5826084BD84B584
:1005E000816084BD85B5826085BD85B5816085BD2E
:1005F00080916E00816080936E00109281008091E6
:10060000810082608093810080918100816080936D
:100610008100809180008160809380008091B10092
:1006200084608093B1008091B00081608093B000BD
:1006300080917A00846080937A0080917A00826051
:1006400080937A0080917A00816080937A00809113
:100650007A00806880937A001092C100E091530183
:10066000F091540182E08083E0914F01F0915001BC
:100670001082E0915101F09152018FEC8083109231
:100680005B01E0915701F091580186E08083E09191
:100690005501F0915601808180618083E091550180
:1006A000F0915601808188608083E0915501F0913E
:1006B0005601808180688083E0915501F091560158
:1006C00080818F7D808384E690E0A0E0B0E080931D
:1006D000470190934801A0934901B0934A0180E4F7
:1006E000782E9AE0892E912CA12CB12C83E491E0F4
:1006F0000E94F400892B09F4E2C01A8219821C823C
:100700001B821E821D8240E050E067E371E0CE0153
:1007100001960E94D9010E94600097FD1EC08A3098
:100720009105D9F08AA31BA20D811E810F5F1F4F77
:10073000B801CE0101960E94B201882361F329819C
:100740003A818D819E81BE016E5D7F4F820F931F26
:100750000E949E061E830D83DECF8091E001909162
:10076000E1010097C9F069817A816115710591F005
:100770004091E2015091E3012D813E8142175307E0
:1007800048F00E949E068D819E819093E5018093A2
:10079000E40118C00E94250589819A819093E101A6
:1007A0008093E0018B819C819093E3018093E2012F
:1007B0008D819E819093E5018093E4011A821982D4
:1007C0001C821B821E821D8289819A810E942505BE
:1007D0008091E4019091E501892B09F470C066E1F4
:1007E00071E08091E0019091E1010E949506892BD2
:1007F00009F065C070927C0080917A0080648093DB
:100800007A0080917A0086FDFCCF8091780020915B
:10081000790090E0922B909339018093380182E225
:1008200091E00E949E01C0903801D09039010D2CBA
:10083000000CEE08FF08F7FE26C0E0914301F0919E
:1008400044010190F081E02D6DE283E491E009958F
:1008500022273327A9012C193D094E095F0919A246
:100860008E010F5D1F4FCA01B901A50194010E94BD
:100870006804605DF80162938F012115310541051F
:10088000510589F715C0A701960119A28E010F5DC8
:100890001F4FCA01B901A50194010E946804605D5F
:1008A000F80162938F01211531054105510589F742
:1008B000C8010E949E0185E391E00E949E010E9472
:1008C000940114CF8091E0019091E1010C942505F1
:1008D000A1E21A2EAA1BBB1BFD010DC0AA1FBB1F44
:1008E000EE1FFF1FA217B307E407F50720F0A21BB6
:1008F000B30BE40BF50B661F771F881F991F1A9423
:1009000069F760957095809590959B01AC01BD014C
:10091000CF010895EE0FFF1F0590F491E02D09948B
:10092000CF93DF938230910510F482E090E0E09164
:10093000E801F091E90120E030E0C0E0D0E030973C
:1009400011F14081518148175907C0F048175907E4
:1009500061F482819381209719F09B838A832BC055
:100960009093E9018093E80126C02115310519F023
:100970004217530718F49A01BE01DF01EF0102800C
:10098000F381E02DDCCF2115310509F1281B390B4E
:100990002430310590F412968D919C911397611536
:1009A000710521F0FB019383828304C09093E901D8
:1009B0008093E801FD01329644C0FD01E20FF31F70
:1009C00081939193225031092D933C933AC0209109
:1009D000E6013091E701232B41F42091020130918F
:1009E00003013093E7012093E6012091000130914B
:1009F00001012115310541F42DB73EB740910401A5
:100A000050910501241B350BE091E601F091E701BF
:100A1000E217F307A0F42E1B3F0B2817390778F0D5
:100A2000AC014E5F5F4F2417350748F04E0F5F1F34
:100A30005093E7014093E6018193919302C0E0E077
:100A4000F0E0CF01DF91CF9108950F931F93CF93E3
:100A5000DF93009709F48CC0FC0132971382128255
:100A60000091E8011091E9010115110581F420813F
:100A70003181820F931F2091E6013091E701281701
:100A8000390779F5F093E701E093E60171C0D801E9
:100A900040E050E0AE17BF0750F412962D913C9104
:100AA0001397AD012115310509F1D901F3CF9D014E
:100AB000DA013383228360817181860F971F821749
:100AC000930769F4EC0128813981260F371F2E5FC7
:100AD0003F4F318320838A819B8193838283452B7F
:100AE00029F4F093E901E093E80142C01396FC93E6
:100AF000EE931297ED01499159919E01240F351FF4
:100B0000E217F30771F480819181840F951F02969B
:100B100011969C938E938281938113969C938E93CE
:100B20001297E0E0F0E0D80112968D919C91139716
:100B3000009719F0F8018C01F6CF8D919C919801E6
:100B40002E5F3F4F820F931F2091E6013091E70106
:100B50002817390769F4309729F41092E9011092A7
:100B6000E80102C0138212821093E7010093E601AC
:100B7000DF91CF911F910F910895A0E0B0E0E3ECD9
:100B8000F5E00C94A906EC01009721F4CB010E943A
:100B90009004B8C0FC01E60FF71F9C0122503109F8
:100BA000E217F30708F4ACC0D9010D911C9111971D
:100BB00006171707B0F00530110508F49FC0C801EB
:100BC00004978617970708F499C002501109061B6D
:100BD000170B019311936D937C93CF010E94250510
:100BE0008DC05B01A01AB10A4C01800E911EA0912C
:100BF000E801B091E90140E050E0E12CF12C1097C0
:100C000009F44AC0A815B905D1F56D907C901197EB
:100C1000630182E0C80ED11CCA14DB0480F1A30179
:100C20004A195B096A0182E0C80ED11C1296BC9079
:100C300012971396AC91B5E0CB16D10440F0B28276
:100C4000A38351834083D9016D937C930AC00E5FC7
:100C50001F4FC301800F911FF90191838083EB2DFA
:100C6000FA2FE114F10431F0D7011396FC93EE93BF
:100C7000129744C0F093E901E093E8013FC08D91E1
:100C80009C9111974817590708F4AC017D01129601
:100C90000D90BC91A02DB3CF8091E6019091E7011A
:100CA00088159905E1F446175707C8F480910001AB
:100CB00090910101009741F48DB79EB740910401D6
:100CC00050910501841B950BE817F907C8F4F093C0
:100CD000E701E093E601F901718360830FC0CB0166
:100CE0000E9490047C01009759F0A801BE010E9467
:100CF0008C06CE010E942505C70104C0CE0102C0AA
:100D000080E090E0CDB7DEB7EEE00C94C50681E060
:100D100090E0F8940C94DC06FB01DC0102C0019029
:100D20000D9241505040D8F70895FB01DC018D91A0
:100D3000019080190110D9F3990B0895FB01DC0192
:100D400001900D920020E1F708952F923F924F926B
:100D50005F926F927F928F929F92AF92BF92CF924B
:100D6000DF92EF92FF920F931F93CF93DF93CDB754
:100D7000DEB7CA1BDB0B0FB6F894DEBF0FBECDBFCC
:100D800009942A88398848885F846E847D848C849D
:100D90009B84AA84B984C884DF80EE80FD800C81A6
:100DA0001B81AA81B981CE0FD11D0FB6F894DEBF89
:100DB0000FBECDBFED01089510E0C5E3D0E004C043
:100DC000FE010E948A042196C633D107C9F7F89420
:020DD000FFCF53
:100DD2000000EA018000000000002B01A700F400DF
:100DE200D200E600720153656E736F7251756572BF
:100DF20079004272696768746E65737353656E73C6
:080E02006F723A20000D0A0096
:00000001FF
